:020000041000EA
:1000000000B5324B212058609868022188439860DF
:10001000D860186158612E4B002199600221596106
:100020000121F02299502B49196001219960352056
:1000300000F044F80222904214D00621196600F024
:1000400034F8196E01211966002018661A6600F04E
:100050002CF8196E196E196E052000F02FF8012189
:100060000842F9D1002199601B49196000215960AB
:100070001A491B48016001219960EB211966A021F2
:10008000196600F012F800219960164914480160C1
:100090000121996001BC002800D000471248134993
:1000A000086003C880F30888084703B5996A0420EC
:1000B0000142FBD001200142F8D103BD02B5186610
:1000C0001866FFF7F2FF186E186E02BD00000240BE
:1000D000000000180000070000035F00212200005C
:1000E000F4000018222000A00001001008ED00E03C
:1000F00000000000000000000000000074B24E7A12
:1001000000200420F7010010C3010010C5010010F9
:10011000C1010010C1010010C1010010C101001097
:10012000C1010010C1010010C1010010C701001081
:10013000C1010010C1010010C9010010CB01001065
:10014000CD010010CD010010CD010010CD01001037
:10015000CD010010CD010010CD010010CD01001027
:10016000CD010010CD010010CD010010CD01001017
:10017000CD010010CD010010CD010010CD01001007
:10018000CD010010CD010010CD010010CD010010F7
:10019000CD010010CD010010CD010010CD010010E7
:1001A000CD010010CD010010CD010010CD010010D7
:1001B000CD010010CD010010CD010010CD010010C7
:1001C00000BE00BE00BE00BE00BE00BEEFF3058054
:1001D000103800BEF2EB8871A8A00310C4A0031071
:1001E0003402001090A31AE700201F49086006C8D7
:1001F00081F3088810471D48006800282FD10DA4FE
:100200000ECC002902D000F012F8F9E71849194A7B
:10021000002000E001C19142FCD1174988471749ED
:1002200088471749884700BEFDE701C901C29A42C5
:10023000FBD37047C4A00310C0000020EC130020C3
:10024000F0B303100000042000000420F0B30310FA
:10025000001004200010042000000000704709482E
:1002600008F070FA0047000008ED00E0000000D040
:100270000020002020600320C5720010F90C00103F
:10028000E97300105756000006005250ABB360539C
:100290003097031006005250861C0302409703104B
:1002A000060052505422A29D509703100500525050
:1002B000DE65F468F0B30310F8B5C04610B5064C1F
:1002C0002378002B07D1054B002B02D0044800E017
:1002D00000BF0123237010BD284C00200000000047
:1002E000C8030110044B10B5002B03D00349044888
:1002F00000E000BF10BDC046000000002C4C0020F4
:10030000C803011010B5603160300FF0C7FE10BD9A
:1003100030B50400C1B0AC22FF2115A809F0ECF8FB
:1003200054222100684609F0EDF8EFF3108572B60B
:100330008021FC204901800210F01EF8074B226842
:100340009A4203D085F3108841B030BD8022FC2052
:100350006946520080020FF0FFFFF3E74C4E43481E
:10036000F0B54E4657464546DE46E0B51E001B68D2
:1003700085B0814688463F4F0392272B69DC1A23BC
:100380009A463D4CA244210038000DF09FFE002803
:100390005FD1A37E002B5CD01621227B114262D15B
:1003A0002E2B60D05F2B5ED01A239B46A344584669
:1003B0000FF03AFF050040460FF036FF854252D954
:1003C000281A414658440FF069FE00284BD104F02A
:1003D000A5F9336800219D00ED18039B6D019C4633
:1003E0006544A022280009F087F8484623490FF009
:1003F000D7FE002839D1224B5246009301924B463A
:10040000602128001F4A08F069F95F282BDC50465C
:100410000FF00AFF834640460FF006FF5B461B1AAB
:100420009B462B2B23D828005A465146603009F0B2
:1004300069F85B46E81800232268603003708C334B
:10044000EA50A2680433EA50336801333360272B43
:1004500099DD38000DF002FE05B0F0BCBB46B24697
:10046000A946A046F0BD3368F1E7074BC4E72B234C
:100470009B46D8E76843002020460020D4030110A3
:10048000A89B0310CC030110C8030110F8B5DE4689
:1004900057464E464546E0B506F0FAFA364B9846C2
:1004A000364B9946364B9A46364B9B4606F0F0FA49
:1004B000002924D0FA220023920008F0DBF907007B
:1004C0004146D0264246092401250831360600E07F
:1004D00014787368E3401D4217D001329142F7D17E
:1004E0004B461B68013303D001234A465B4213602D
:1004F000052006F00DFA06F0CBFA0029DAD1FA2130
:10050000890008F079F90700DAE74B461A68944247
:1005100017D00F201C6006F0FBF97368E3401D4202
:1005200004D001234A465B421360BFE753461F6075
:100530005B461F602000F0BCBB46B246A946A04601
:10054000F8BD092A01D0052AD2D153460E491B68AD
:10055000FB1A8B420ED8AF2149008B42C8D905390E
:10056000FF395B461B68FB1A8B42C1D95B461400FE
:100570001F60DFE72821F4E7F8070110B807002023
:1005800048E100204CE10020DC050000F0B52B4ED6
:100590002B4B32680400002591B09A4202D028000B
:1005A00011B0F0BD336D01209C460123254D264F2F
:1005B0005B423278013653400822590803405B42BF
:1005C0002B40013A4B40002AF7D1BE42F1D1DB4328
:1005D0009C4501D00025E2E7E02109068C468421F4
:1005E0001A4AC902136863448B42F3D85368002542
:1005F0001842D4D0164A9446E022634452039342F0
:10060000CDD23F236A462100D55468463F220FF0E1
:1006100039FE8C22094BA25859689142BFD19A6881
:100620009023E3589A42BAD14022694609480FF014
:1006300083FE45424541EDB2B1E7C04600F00310EC
:100640004C4E43482083B8ED50F0031000000410D6
:100650000000FCEF10F0031070B58AB0002840D104
:100660002E4B1A68002940DB91423EDA00281FD148
:1006700088002B4C4018400102AD04194B1C00921D
:1006800010212800274A08F029F82000FFF77EFFF4
:10069000002839D006AE3200234B03CB03C21B889F
:1006A0001380200032002900603002F0C5FE21E0F6
:1006B00088001E4C4018400102AD4B1C04190092EA
:1006C00010212800174A08F009F89423E35C002B56
:1006D00012D006AE3200164B03CB03C21B88138028
:1006E000DFE7144B1A680029BEDA0022002100203F
:1006F00002F0A2FE0AB070BD9C2306AE10213000AD
:10070000E25801F063FECCE78C23E35806AE1021DB
:100710003000094A9B0A07F0E1FFC2E7FCCE002047
:10072000F0AE0020F8030110D803011008470320A1
:10073000EC03011000CF0020E4030110F0B5150018
:100740001E0089B000291FDB002824D1284B1B681C
:10075000994219DA8B005918264B4901C9180B0028
:100760006C4660330093244BE06060600800238196
:10077000FFF70CFF002801D0204B636032002100FE
:10078000280002F0A5FB04E000220021280002F06E
:100790009FFB09B0F0BD1A4B1B689942F4DA8C003C
:1007A000184B61184901C9180B0060336C4600935F
:1007B0000123E360002363600F4B23819423CB5C10
:1007C000002B09D0104B32006360104B2100280031
:1007D000238102F07DFBDCE79C2304AFCA5838007C
:1007E000102101F0F3FD0A4B67602381C6E7C04684
:1007F000FCCE0020F0AE00201057000004040110D1
:1008000000CF0020084703200C04011028FEFFFF42
:100810007EEFFFFFF8B54746CE46060080B590460E
:100820000F00002823D1154B1B689946454600242C
:10083000EB1B5A425341290022003000DBB2013445
:10084000FFF77CFF0135082CF2D14A4608214046CB
:1008500002F0BEFC4B46002B05D1002E0BD0084801
:10086000084902F025FDC0BCB946B046F8BD064BAC
:100870001B689946DAE705480549F2E7FCCE0020F7
:10088000500401106804011000CF0020180401106A
:1008900030040110F0B54546DE464E465746E0B5F9
:1008A000B34CB44BA544010004900600012218008B
:1008B00098460CF0B9FB0125041E09D02800B3238B
:1008C0009B009D44F0BCBB46B246A946A046F0BD85
:1008D000330060331A00A84905930190A74B00909C
:1008E000A74803F0BBF80123A64F5B423B60A64B31
:1008F00000221C60A54B40461C609B46A44B1C700C
:1009000000230DF0B9F8012399460023A14A802461
:100910004E4692469946A4009F4D802240461DAB0C
:10092000920032A90CF0F2FD00285DD11D9B002B36
:100930005CD0A34253D1329B039353454FD1339B99
:100940000393AB424BD1FE2204A9B83052000918E0
:10095000924B8A589A4242D1B2AB1A1B9368D9077C
:10096000DBD49B0404D58E4BD2699A4200D0ACE113
:100970008023369A5B0003929A4230D1C42104AAA4
:1009800052181278359B002A29D1F02280211206B4
:100990009A1889038A4222D2824A934200D88BE174
:1009A00081215A1CFF3249058A4200D98BE1002E71
:1009B00002D14B4500D88CE139688B4200D23B60B4
:1009C0007149096803918A4201D96F490A605A4600
:1009D000594612689946013200260A609CE70225B2
:1009E00040460DF01DF869E70125F9E71D005B465B
:1009F0001B68002B00D1B4E06B4B3A689A4200D0E0
:100A000065E16A4B059A5C4969480195009503F0D8
:100A100025F85422002108A808F06EFD08A8FFF769
:100A200077FCF0223B68120694461C00564B644447
:100A30001B6878201F0005935E4B5F4A9C46674405
:100A40003F0B01235D493F03039402F0EBFE3B1B88
:100A50009A46BC421CD25346AA461D0080233E1B28
:100A60005B029E4200D91E00039B2A00E11A8C20E3
:100A7000414B02F04DFFEFF3108972B631002000B8
:100A80000FF07AFC89F31088A419A742E6D85546DE
:100A9000012201218C20384B02F03AFF4849012302
:100AA0007820454A02F0BEFE0022002340460CF0AA
:100AB000E3FF8022434BFF21180052019A4608F0C1
:100AC0001BFD01235B4299468024A400802207ABD2
:100AD0004046920032A90CF019FD079B002875D101
:100AE000A34273D10122B2AB1F1BBB681342EDD1ED
:100AF000FC68260B36034E451ED04B46013315D0FD
:100B0000EFF3108472B6F02080220006514648446C
:100B100052010FF021FC84F3108880225146484690
:100B200052010FF009FC00281DD1FC688022FF2132
:100B30005046520108F0E0FC8022A01B50445200B5
:100B40003AA9013508F0DEFCEB0601D0B146BBE75F
:100B50005A462900A8201C4B126802F0D9FEB14663
:100B6000B2E707253CE740460CF05AFF0A25A5E608
:100B700034FDFFFFC043002028FE00008804011060
:100B80009C04011030DF00202CDF002028DF002033
:100B900054AD00205546320A57515D9E306FB10A60
:100BA00056FF8BE4FFFF031000000410BC0401108B
:100BB000D4040110FF0F00F07EEF0000E0040110EC
:100BC000EC04011028CF002010570000002B67D143
:100BD0004B46013314D0EFF3108472B6F02080221C
:100BE00000065146484452010FF0B6FB84F31088CA
:100BF00080225146484652010FF09EFB0028B2D198
:100C000040460CF00DFF01220121334BA82002F0D9
:100C10007FFEE02109068C468421304A08251368AE
:100C2000C90263448B4200D948E65368DA0700D40E
:100C300044E62B4A9446E02263445203934200D395
:100C40003CE604AB9C46B32005220021604408F03A
:100C500053FC244B04991D938C23CB583F221E93A5
:100C60009023CB5821A81F931F4B01241B681DAD57
:100C7000039320930FF006FB01234C221B485B4299
:100C800031AE534008220135590823405B420340EE
:100C9000013A4B40002AF7D1B54206D02A78F0E756
:100CA00040460CF0BDFE012508E6DB431DA831934C
:100CB0000025FFF72DFB01E628210D4A0D4807F01E
:100CC0000DFD03258CE604258AE6062588E6082521
:100CD00086E6052584E6C046105700000000041093
:100CE0000000FCEF4C4E43482CDF00202083B8ED81
:100CF000A804011054AD0020F0B5DE4657464E461C
:100D00004546E0B5C04BC14AD96895B091420BD178
:100D10000022DA60E023BE4A1B061068C118842353
:100D2000DB02994200D813E3D0260127B94C3606DE
:100D300025780134280004F09FFF3B00AB400022DF
:100D4000B3620121280004F071FFB34B9C42EFD144
:100D500004F046FC00F0BCFC0023069307930893C4
:100D6000099303930133994600239846AB4B4746BA
:100D70009A460AAB9B464B46A94DAA4C02932321A7
:100D8000A94802F067FE00230022A84900202B603A
:100D900023600CF009F90122A449A5480CF004F9DC
:100DA000002800D0A7E203F0B9FC5046A1490DF09D
:100DB000D5F8002805D12B009F4AA0499D48FFF790
:100DC000CFFA50469E490DF0C9F8002805D12B00F6
:100DD000994A9A499A48FFF7C3FA504699490DF043
:100DE000BDF8002805D12300974A98499548FFF798
:100DF000B7FA504692490DF0B1F8002805D123000A
:100E0000914A92498E48FFF7ABFAA022904B29688D
:100E100089480EF02BFE8E4BA02221688A480EF0E6
:100E200025FE2368002B32DD0023874E99460133CF
:100E30009846943619E05B461B8873805B465B8856
:100E4000B3805B469B889800C0185B464000D988F9
:100E500007F0D2FC5B465B69F080B36001239C46DF
:100E60002368E144A036994511DA03F057FC3000BD
:100E70005946943803F000FE0028DCD04346337016
:100E800001239C462368E144A0369945EDDB029B93
:100E9000002B02D06F4803F061FC2A682668002A04
:100EA00000D0F6E1002E00D172E1002F01D1012324
:100EB0005F4006A808A90368934204DB131E00DC08
:100EC0000123013B03600A689A4201DD1A000B60AE
:100ED00007329A4201DA073B0B600431043059456E
:100EE00037D1039B002B00D149E1082104AABB00A4
:100EF0005218D658083104AA52180293D35898466B
:100F000000F05EFE38002268296801F097FA31008F
:100F100038004246FFF77EFC31003800FFF79CFBAB
:100F200001239846D021090600238946394A4946BB
:100F300048681178C8404146014200D10123364932
:100F400001329142F3D1002B05D00A2005F0E0FCDC
:100F5000E8E73200AFE7142005F0DAFCD0231B06E7
:100F60009946B046FFF792FA002F3FD1039B2968BC
:100F7000002B3FD0032800D1FCE00222831F9343C3
:100F800000D1C5E01C283CD00222831E934363D0CD
:100F90000029E7D0092800D182E10528E2D14346A3
:100FA000581C07F001FC0E004645DBD01021029AC8
:100FB00004AB5B1804A808399B58401886509E4221
:100FC00000DB77E11300B44604A808314218D6507C
:100FD000624631003800FFF71DFC31003800FFF792
:100FE0003BFBB046FFF752FA002FBFD0039B2168AE
:100FF000002BBFD10222831E934300D1A4E01C2802
:10100000B0D100230293BAE600800540FECA07B0C3
:1010100000000410F80701100008011068430020C8
:10102000FCCE002000CF00204C050110600501100F
:101030004047002064050110F0AE0020700501104B
:10104000D40301107805011008470320840501101E
:101050000503001068100000002900D182E7002F6E
:1010600000D0BCE0069B9E00F618D34B7601984654
:10107000B0444046FFF78AFA002800D07EE140469F
:10108000FFF708FC002800D178E1431ECB4A092B6A
:1010900002D8CB4A9B00D258CA4B1B78591E8B41B1
:1010A000C8495B420B40032800D100E1082800D169
:1010B000FDE000210020D02601900091C248C349E4
:1010C00002F0CCFC0123CD20C14AC24902F0AAFBA8
:1010D000039BB8469946360602E00A2005F018FC44
:1010E00000220120BC4B71681F78F940084200D1F2
:1010F0004A46BA4901338B42F5D1002AEDD1474621
:10110000142005F005FCFFF7C1F90023029336E631
:10111000082101335F4004AABB005218D25808319D
:10112000904604AA5218D6583800226829680293BB
:1011300001F084F9414638003200FFF76BFB41466D
:101140003800FFF789FA0DE71021029A04AB5B180B
:101150009E5838002268296801F070F93200414633
:101160003800FFF757FB41463800FFF775FA0123B7
:101170000393F7E602F0AAFA00230393F2E602F0E3
:10118000A5FA082104AABB005218D6580293C7E654
:10119000934B944A9449954801960093944B02F0DE
:1011A0005DFC0123CD208A4A924902F03BFB0136C7
:1011B0000022D0209446884B000642681978CA4025
:1011C000164201D101229446844A01339A42F4D155
:1011D0006346002B94D00A2005F09AFBE8E7079BB2
:1011E000039E0493059702E00A2005F091FB00227C
:1011F0000120794B49461F784968F940084200D1DF
:101200003200764901339942F4D1002AECD11420FE
:10121000059F05F07DFB049B9C4698006044764B3F
:10122000400101009C4660316144604403F03CFC95
:10123000039E059702E00A2005F06AFB00220120C8
:10124000654B49461F784968F940084200D1320091
:10125000624901338B42F4D1002AECD11420059F5E
:1012600005F056FB099E00F0ABFC012022682968BE
:1012700001F0E4F8320041460120FFF7CBFA414685
:101280000120FFF7E9F9FFF701F9049B216898466F
:1012900070E6002F00D10CE6002E00D107E608E62C
:1012A00043465818013807F07FFA0E007CE6534990
:1012B000534800E7DA1D96420FDCF21A04924246C8
:1012C00041463800D21A0023FFF738FA01233100D3
:1012D0003800049AFFF732FA7FE6F21F9446102294
:1012E00004A98918624602980A50634500D06FE647
:1012F00007220492E3E7029B002B58D100230193BD
:10130000404B414A314941480093414B02F0A6FB12
:101310000123CD202E4A3F4902F084FA0126D02233
:1013200012060920002194462B4B62465268C240A7
:10133000164200D10121294A0133934206D10029E6
:1013400000D1DDE60A2005F0E3FAE8E71878ECE7DB
:101350005368D90700D4E7E4E0242F4964035918FF
:10136000A14200D3E0E401212C4C494221602C4CE5
:1013700021602C490A6080F3088818470E4B320020
:1013800000249C4660322300274962442748019488
:10139000009402F063FBFA2005F0BAFA244A254BC8
:1013A0002100DA6020000A2205F02CFFFEE7224827
:1013B00003F0D4F9A2E7C046F0AE0020FC0401100F
:1013C000D007011054AD00209006011069F2000012
:1013D0003484000098060110F8070110000801107D
:1013E000580601102406011028FE00004C060110CA
:1013F0000C060110700601100847032010050110AB
:1014000034050110D4050110AC050110CC05011004
:101410008C050110EC0501100000FCEF80E100E0FC
:1014200080E200E008ED00E010570000A80601107F
:10143000FECA07B0008005406810000030B5194AA8
:101440001378002BFCD01021174AD3681942FCD125
:10145000D02380211B0689025961D3685B0705D51B
:101460000421114B9A68DA681142FBD10122002154
:101470000D4B1A620D4A11700D4A1078002810D0D9
:1014800002240C4D58682C601D68204005346C40C7
:10149000CF2525408024640123431D60064B117035
:1014A000186030BDC007002000C003401860032052
:1014B0001D60032004F0034004E0034030B583B016
:1014C0006B46D91D134B08701A78002A12D00220DF
:1014D000114D124C6A6820602C6802400530604053
:1014E000CF24044080204001284304600C4802605F
:1014F00000221A70D0248023802524065B03AD02CD
:10150000A3610122A56104480EF03EFF656103B0AE
:1015100030BDC0461D60032000C0034004F00340FE
:1015200004E00340134B0A00197870B5002912D06B
:101530000224114E114D71682C603568214005342C
:101540006C40CF25254080246401344325600C4C39
:10155000216000211970D024802380252406AD024B
:101560005B03010063610448A5610EF00DFF656136
:1015700070BDC0461D60032000C0034004F003405E
:1015800004E00340F0B5C646804600B52A2082B08C
:1015900017000E001D00FFF791FF434601AC1B0A28
:1015A000237043460421200063703B0AA370E77058
:1015B000FFF7B8FF2B20FFF781FF330A042120003B
:1015C00023702B0AA3706670E570FFF7ABFF2C2029
:1015D000FFF774FF02B080BCB846F0BDF0B5C64658
:1015E0002C4E1F00337880460C00150000B5002BF0
:1015F00001D0FFF723FF4246274B1A603A00274BE2
:1016000062431C60264B1D60264B1F60264BBFB2F9
:101610001A60069B7D4398B27C43079B421E99B299
:101620004B1EEB18A2189BB292B2FFF7ABFF1F4BF9
:101630001A78002A12D102211D4C1E4862680160EE
:1016400020680A400D314140CF20084080214901E7
:101650002143086018490A6001221A70D0238022B1
:101660001B0652035A61802292029A610023134A98
:1016700000201360124A13491360134A1360134A7F
:101680001370013333700EF05FFE0EF035FE80BC38
:10169000B846F0BD18600320C0AE0020D00700207F
:1016A000C4070020CC070020C80700201D600320CD
:1016B00000C0034004F0034004E00340B0AE00204B
:1016C00024CF0020F8C70020DC5C0020C0070020E9
:1016D00070B5D024802682B02406B602112004F012
:1016E000CBFA6662142004F0C7FA802380255B03DE
:1016F000AD036362152004F0BFFA6562162004F0A2
:10170000BBFA8023DB03636263616661454E464931
:10171000300008F057F80121122004F06FFA01217F
:10172000132004F06BFA0222404973680A603168A2
:10173000134005324A40CF21114080225201164306
:10174000316000263A4A0A2013603A4B1E706561E8
:1017500005F0DEF8A5610A2005F0DAF86561782069
:1017600005F0D6F80120FFF7A9FE962005F0D0F885
:101770001120FFF7A3FE782005F0CAF83A20FFF702
:101780009DFE6A465523D01DD3710121FFF7CAFE85
:101790000A2005F0BDF83620FFF790FE6A46A02328
:1017A000D01DD3710121FFF7BDFE2020FFF786FE7B
:1017B0001320FFF783FE0A2005F0AAF82920FFF77F
:1017C0007DFE642005F0A4F8012008F037F8A02180
:1017D000C9058C46184BC2021860184B18491340B3
:1017E000184A01241A438301634419601649596059
:1017F000A021490099601A61230061468340134A81
:101800000C208B50124A13491360802204F028FBED
:1018100001210C2004F0E0FA0F4B1C700F4B1E70DE
:1018200002B070BD00C00340A0ACB90304F0034097
:1018300004E003401D600320BC070020FD7F00FF83
:10184000F8C700201500080008C003401C04000071
:1018500014240050B5010020C007002018600320A8
:10186000034B10B51B78002B01D0FFF7E7FD10BD2F
:101870001860032030B583B000290DDD002A0BDD90
:10188000002B09DD1C00A0254C436D00AC4203DC9D
:101890001C005443F02C01DD03B030BD079C0194C3
:1018A000069C0094FFF79AFEF6E7C046F0B5464660
:1018B0004F46D646C0B5A0B01E0028AB1C88A0235A
:1018C0000500884617005B0098420BD2EF2909D823
:1018D00082189A420CDD1B1A9FB28B19F02B16DC72
:1018E000002E4ED120B0E0BCBA46B146A846F0BDAD
:1018F0008B19F02B42DD002FF4D07B1EC3189BB256
:10190000F0269946EF23761A9A46B6B207E0EF23FF
:101910009A464023F026FF339946761AB6B21D4BFD
:101920001B78002B01D0FFF789FD28004146534664
:101930004A46FFF727FE6946250A20A8E4B20D7043
:101940004C7002318842FAD1D02380221B06520308
:101950005A6180227E4392029A613500402E00D95E
:10196000402569460C486A000EF00EFD761BF4D146
:10197000D02380221B0692025A61B3E7002FB1D018
:10198000AEE76B1EFB189BB29946731E43449BB295
:101990009A46C4E71860032000C00340A02200B5A7
:1019A00083B00090F023002100205200FFF77EFF5B
:1019B00003B000BDF8B54746CE461D00A02380B554
:1019C00006000F0014005B00984249D2EF2947D867
:1019D000002A45D0002D43D082189A4240DC4B1992
:1019E000F02B3DDC204B1B78002B01D0FFF726FDB0
:1019F0006B1E621EFB18B218390030009BB292B207
:101A0000FFF7C0FDD02380221B0652035A618022BB
:101A100092029A6163009946144B0027002698466B
:101A2000089A0021944642467B006344188801319D
:101A3000000A1070188889B25070023302328C424A
:101A4000F4D101364A4641460948B6B20EF09CFC34
:101A50003F19B542E4D1D02380221B0692025A617D
:101A6000C0BCB946B046F8BD186003205C5A0020DF
:101A700000C00340012070470023002800D1014B23
:101A800018007047D8070020012070470023002865
:101A900000D1014B18007047900A0020F0B5DE46D7
:101AA00057464E464546E0B53F4B8BB01B6803900A
:101AB00007910893002B00DC70E00799EF2900D90B
:101AC0006CE08C46394B039C1868A02743000693B2
:101AD000374B04909A4609938B006344A4469B01BC
:101AE00063448C465B009846089B8946013B6344EF
:101AF000A4466044050005932E4B2F4A9C462F4B6D
:101B000090447F000293049B40465146039A002B69
:101B10001DDD0B88202B3DD0412B13D1BA4211D2B1
:101B2000068833041E4363461E40029B9C1B6300D1
:101B30001B196446DB005B099B1923401C0C2343E3
:101B40009BB20B80013202310230AA42E1D1059BE7
:101B500099450CD001239B46069BD9449B46A02364
:101B60009B00DA449B464B46D844F02BCBD16B46C6
:101B70006A4669466846099C1B8C128A898B808953
:101B80000094FFF717FF0BB0F0BCBB46B246A94666
:101B9000A046F0BDBA42D5D20388D2E7034B1B68FA
:101BA0000493034B0993E2E7D40A0020D80A0020EB
:101BB000105D00201FF8E007E80C01100518E00098
:101BC000A02200B5054B83B000930021F023002034
:101BD0005200FFF7EFFE03B000BDC046E80C011055
:101BE000F0B50500174CAA18246805A80C1BE9439A
:101BF000C9170D40E143C917E3180C40124900888A
:101C000009680F00914200DD1700104A16689E42D5
:101C100000DD1E00A64213DD4B0061439C46C9193E
:101C20000B4B4A00E91BD2184900BD4204DA531895
:101C3000188002339342FBD101346244A642F4D1AE
:101C4000F0BDC04608CF0020D80A0020D40A0020EA
:101C5000105D0020F0B54646D6464F468846C0B5D2
:101C600014000600FF2A2DDDFF243F23700999464A
:101C700003409A464346F50AD80A401BFF216043B9
:101C800006F092FD1F2743463E401F404519B81BF2
:101C9000FF21604306F088FD4346861958094B46EC
:101CA00018405346C01AFF21604306F07DFDED0247
:101CB000504435434001284380B2E0BCBA46B146A7
:101CC000A846F0BDD043C0170440CEE7F0B5574654
:101CD0004E46DE464546E0B58DB0099002931800A9
:101CE00016AB10CB01921E8818AB1A880894924646
:101CF000002800DC8CE04B4A4B4B126845100492E4
:101D00001B6862000795904200DB88E0079A029802
:101D1000801A524392000A92444A0B9012689346EA
:101D2000520010000592CA1A4243DB439146012239
:101D30005B180693019B3E48013B90468144039308
:101D400008E0059A43469446029A0133E14442452D
:101D50005ED098464346069A04994244013B91421C
:101D6000EFD9089A002A47DD079A9A4207DC0B99B7
:101D7000994241DC4146029B5B1A9A423CDD079A3C
:101D8000D21A5200013A52430A9B9A1AD343DB17E4
:101D90001A4000230133190059438A42FADADD0F51
:101DA000079AEB185B10D31A019AD71ABB42C8DA0C
:101DB000099A1D029446D418ED1A53466744BA4650
:101DC0001F000FE02800039906F0EEFC0200390026
:101DD0003000FFF73FFF4A466300D0520134FF3521
:101DE000A2450CD0A345F9D93000BE42F3D0019BE7
:101DF000012BE7D10022EAE70023019FD6E7059AED
:101E000043469446029ABA460133E1444245A0D182
:101E10000DB0F0BCBB46B246A946A046F0BD079443
:101E200074E7C046D40A002008CF0020D80A00205A
:101E3000105D0020F0B5DE46454657464E46E0B5FB
:101E40004B4B89B002934B4B0400019304230D00CC
:101E5000502205900691009301000A330F20FFF7EE
:101E600035FFA31C04932B7822002900002B5CD0A3
:101E70000C3217000122002090463F4A01318B4668
:101E8000814692460791203BDAB25E2A6AD89E00CC
:101E9000F6187600059B049DF61A384B023E9C46C8
:101EA00066440524735D424623411A424FD1013CEA
:101EB000F8D20135AF42F4D1012294465B46053297
:101EC000E34494461B78E144002BDCD1079B9B46FE
:101ED000069B1B78002B28D00022914601329046A9
:101EE000254A9246203BDAB25E2A3ED89E00F6187A
:101EF0007600059B049DF61A204B023E9C466644E4
:101F00000524735D424623411A4215D1013CF8D2A3
:101F10000135AF42F4D1012294465B460532E344D9
:101F200094461B78E144002BDCD109B0F0BCBB46E1
:101F3000B246A946A046F0BD484653461830009325
:101F4000012201232900001BFFF74AFEDEE7484675
:101F5000534619300093012201232900001BFFF78B
:101F60003FFEA4E79B26760094E79B267600C0E719
:101F70009EC60000FFFF0000F8220000300901109B
:101F8000F0B51F00032385B005000E0002920192F8
:101F90000093102202310933FFF798FE0824083617
:101FA0000535E10F09194910230028000122711A93
:101FB0000097023CFFF714FE0135002CF1D105B06B
:101FC000F0BDC04630B50F4B85B00D000093072221
:101FD000032302310400FFF703FE0B4B20000293A2
:101FE00001930223291D009310220833FFF76EFE90
:101FF000064B0E220093A91D0123601CFFF7F0FD84
:1020000005B030BD66DD00006BF6000074FF000017
:10201000F0B5CE464746032305000E0080B5364F87
:1020200085B00093140002970F2201970C33FFF73D
:102030004DFE681C711C022C17D0304B0D220293F0
:102040000193022300930B33FFF740FE002C31D1A4
:102050003100032306220A31281D0097FFF7C0FD37
:1020600005B0C0BCB946B046F0BD254B0D22029369
:10207000019300940D23FFF729FE0B230E229846AF
:1020800091466B002C1DA844761B994435192000FD
:102090000123022229000097FFF7A2FD4B460222EE
:1020A000181B2900012300970134FFF799FD4445CF
:1020B000ECD1D5E72C1D2000311D0223082200970A
:1020C000FFF78EFDB31D98462000414605230122EF
:1020D0000097FFF785FD28004146052301220B30BC
:1020E0000097FFF77DFD31000123082220000A310F
:1020F0000097FFF775FDB3E7FFFF0000FB2200002C
:1021000045D20000F0B5DE4657464E464546E0B59E
:102110008DB0079316AB1D78654B17000293654B86
:102120000C000193052300930E33060008900491E0
:102130000A92FFF7CBFD3A005F4B01340093210078
:1021400001230A3A701DFFF74BFD002D00D0A6E0D9
:1021500033000833049A511D06320692079A0591FE
:102160001278002A61D01024A4460498079960448C
:1021700080460B200131012783468A4609910B9343
:10218000203AD1B25E2900D983E09600B6187600D5
:1021900006339946494B049A9C46B61A063E069D5C
:1021A00066440524735D23411F4268D1013CF9D286
:1021B0000135A845F5D153461A7801239C464B4674
:1021C000E244002ADCD10B9B9A46079B1B78002B2C
:1021D0002BD00F218C46049A012762449046384A3E
:1021E0009146099A9346203BDAB25E2A54D89E0063
:1021F000F6187600049B059DF61A304B053E9C466A
:1022000066440524735D23411F422DD1013CF9D260
:102210000135A845F5D1012294465B460532E344D9
:1022200094461B78E244002BDDD10A9B089C9C4617
:1022300064442000049D0022023529003338FFF752
:10224000E7FE2000290001222338FFF7E1FE2000ED
:10225000022229001338FFF7DBFE0DB0F0BCBB46AD
:10226000B246A946A046F0BD5346581D4B46012232
:10227000009329000123001BFFF7B2FCC6E74B4681
:10228000181B5B460122009329000123FFF7A8FCDD
:102290008CE79B2676007BE79B267600AAE7089DC5
:1022A0002100281DFFF78EFE2B00183352E7C04691
:1022B0001F3400001A0200005F7D00003009011089
:1022C000FFFF0000F0B557464E46DE464546E0B5F6
:1022D0009A46137887B0109E0491002B3DD00132AE
:1022E0000392720092195200059201228346904691
:1022F000203BDAB25E2A37D89F00FF187F001C4BC4
:102300009C460A2367449C46BC4463460293049B54
:1023100099465D46052402E0AD19013C0FD33B7898
:10232000424623411A42F7D0534628000093320018
:1023300033004946FFF754FCAD19013CEFD2029B34
:102340000137B144BB42E4D1039A137801320392BE
:10235000059A9446E344002BCAD107B0F0BCBB46B3
:10236000B246A946A046F0BD9B277F00C7E7C046FE
:1023700030090110F8B5069C0F006100091905002D
:1023800049001800160006F00FFA0400032800DACE
:102390000324013FA74200D23C0030000DF044FF6F
:1023A000A0420DDDA71E3A003100280007F0AAF870
:1023B0002E222B19013BEA551A7000232B55F8BD2C
:1023C000421C3100280007F09DF8F8E7F0B50E0038
:1023D000E1210500140083B009018A4218D31000DE
:1023E00006F00AFA3C210700200006F005FA20005A
:1023F00001913C2106F000FA3C2106F0FDF93B007A
:102400000091280031000B4A06F068F903B0F0BDD6
:1024100010003C2106F0F0F93C210700200006F0F6
:10242000EBF93B00009128003100034A06F056F911
:10243000ECE7C0460008011010080110F0B5DE46B8
:1024400057464E464546E0B599B00C900D910E9218
:10245000002801D000F015FDD54BD64A0A93D64B83
:10246000197801330991117801320B9106210F92ED
:1024700006911093DC21069BC91A0591202901DDE4
:1024800020230593A023CD4A5B001360059BCC4A13
:102490009C4613609A00CB4B62449C46D201624436
:1024A0002020188002339A42FAD119249C26069BD8
:1024B000C54AE41A1360E343B600B446DB171C4078
:1024C000C04AA5002B19059E98016244DB01D21871
:1024D00033008E4200DD0B00AF219E00F618B601DE
:1024E0008900BA4BD318198002339A42FBD1A0233A
:1024F0009B009C464130FF3062448642F1D101236B
:1025000098220621009352000A9B0820FFF7FAFD4B
:102510002923069A05999A1A07920B00914200DD29
:1025200013009C4219DAAA49A64A8C462D199C0030
:10253000A8016244ED01E418A6495219A401A64B72
:10254000D318198002339A42FBD1A0239B009C46EA
:102550004130FF3062448442F1D1A04BA04A9946F9
:1025600000230127934698464433203BDAB25E2A83
:1025700000D9CFE29E00F61876009A4B1C249C46A8
:10258000142343449A461C3E66440525335D2B4183
:102590001F4200D0B1E2013DF8D20134262CF4D123
:1025A000012294464B460532E14494461B78E044B0
:1025B000002BDAD106981B331B1ADA432721D217D6
:1025C0001340059A091A914200DD11008B421CDA72
:1025D0008F20800084469A00D3187A4A88004018D9
:1025E0009C016244DB018049D21880011300AD3B9D
:1025F000FF3B198002339A42FBD1A0239B009C46EB
:102600004134FF346244A042F0D11C2306995B1A86
:10261000DA43D21713402622521A05998A4200DD66
:102620000A00934218DA9C00E418664BE4011D008E
:102630009C4693009A1892349235D2016444AD18A6
:10264000D4222000FF21520006F056FFA0239B0059
:102650009C466444A542F3D100220127904693464C
:102660000F9B99460B9B203BDAB25E2A00D954E2BD
:102670009E00F61876005B4B1C249C465123434475
:102680009A461C3E66440525335D2B411F4200D00F
:1026900029E2013DF8D20134262CF4D101229446DE
:1026A0004B460532E14494461B78E044002BDAD1D6
:1026B0004E4B222002934E4B1B21019302230C32DE
:1026C0000093FF300A33FFF701FB4A4B01279B467B
:1026D0009946002398464933203BDAB25E2A00D956
:1026E00024E29E00F61876003E4B1C249C4695235F
:1026F0005B0043449A461C3E66440525335D2B41EE
:102700001F4200D0E5E1013DF8D20134262CF4D17E
:10271000012294464B460532E14494461B78E0443E
:10272000002BD9D1344A0127924698464933203BA1
:10273000DAB25E2A00D9F6E19E00F6187600294B3F
:102740001C249C462A23FF33434499461C3E66447E
:102750000525335D2B411F4200D0B0E1013DF8D289
:102760000134262CF4D1012294465B460532E34421
:1027700094461B78E044002BD9D1079AD921D34342
:10278000DB171340069A891A059A914200DD110061
:102790008B4241DA9A00D3180A4A8C0064189801D7
:1027A000C632DB011549D218A4011300B03B27E063
:1027B000240801103C08011064080110D80A002008
:1027C000D40A0020105D002008CF0020A0FDFFFFEC
:1027D0006A0200005BEFFFFFACFDFFFF95080110F0
:1027E000CB5A000030090110F77C0000652C000076
:1027F000A8450000A1080110FFFF0000BB74000005
:10280000198002339A42FBD1A0239B009C464130A1
:10281000FF3062448442C8D12E20C949FFF70AFB29
:102820003C23069862211B1ADA43D2171340059AFB
:10283000091A914200DD11008B4218DA9A00D31870
:10284000C04A8C0064189801BE32DB01BE49D21820
:10285000A4011300A03B198002339A42FBD1A023AC
:102860009B009C464130FF3062448442F1D1B74B1B
:10287000B74A994600230127934698464133203BA7
:10288000DAB25E2A00D957E19E00F6187600B14B05
:102890003F249C46182343449A463F3E6644052500
:1028A000335D2B411F4200D0FFE0013DF8D20134DF
:1028B000492CF4D1012294464B460532E14494461A
:1028C0001B78E044002BDAD1A34BA14A99460023A0
:1028D0000127934698464233203BDAB25E2A00D95C
:1028E00027E19E00F61876009A4B4B249C4618234D
:1028F00043449A464B3E66440525335D2B411F42B7
:1029000000D0C8E0013DF8D20134552CF4D10122A9
:1029100094464B460532E14494461B78E044002B34
:10292000DAD18E4B8A4A994600230127934698466E
:102930005333203BDAB25E2A00D9F1E09E00F6184C
:102940007600844B57249C46182343449A46573EAE
:1029500066440525335D2B411F4200D091E0013DC7
:10296000F8D20134612CF4D1012294464B46053251
:10297000E14494461B78E044002BDAD16620784984
:10298000FFF758FA742306989A211B1ADA43D217D4
:102990001340059A091A914200DD11008B4218DAA2
:1029A0009A00D318674A8C0064189801BE32DB0184
:1029B0006549D218A4011300A03B198002339A4242
:1029C000FBD1A0239B009C464130FF3062448442EF
:1029D000F1D100230D9A07930893624B00921421C2
:1029E000614A13A805F07AFE0C9B089A934200D125
:1029F00016E2574B9B460EAA94461527079A0EAB34
:102A00001B7D7732002667440592002B2ED0203B99
:102A1000DAB25E2A7BD89D00ED186D004D4BB046B2
:102A20009C460A239A46059B65445B1B9946AA442B
:102A300004E0013C05D20135AA4511D04B460524DE
:102A40005E192B782341DB07F3D540465B461830EF
:102A50000093012201233100001BFFF7C1F8E8E7D2
:102A600046463B7806360137002BD0D1079B089AA3
:102A70000C3307933D4B012A7CD0012208920E9A19
:102A8000ACE75346581B5B4601220093210001230B
:102A9000FFF7A6F863E75346581B5B4601220093F5
:102AA00021000123FFF79CF82CE75346581B5B4697
:102AB0000122009321000123FFF792F8F5E64B462F
:102AC000581B53460122009321000123FFF788F889
:102AD00044E65346581B264B012200932100012354
:102AE000FFF77EF80FE65346581B5B460122009322
:102AF00021000123FFF774F8CBE55346581B5B46D2
:102B00000122009321000123FFF76AF843E59B258A
:102B10006D0083E79B2676002FE59B267600AAE5CD
:102B20009B2676000DE79B26760008E69B2676001E
:102B3000DAE59B267600D7E69B267600A7E6C04618
:102B4000A4080110105D0020FED6FFFFAD080110A3
:102B5000F822000030090110B9080110C508011061
:102B6000D40801101C080110DC080110E408011051
:102B7000FFFF0000C64BC74A994600230127934632
:102B800098463C33203BDAB25E2A00D93FE19E00F2
:102B9000F6187600C04B8F249C46182343449A466F
:102BA0008F3E66440525335D2B411F4200D024E152
:102BB000013DF8D20134992CF4D1012294464B46C0
:102BC0000532E14494461B78E044002BDAD1AC2472
:102BD000D4259E20B149FFF72DF9B14B1B68E41AAB
:102BE0000593ED1AE343DB171C40AE4B1B689B4675
:102BF00018005F2B00DD5F20AB4B1B6807939D42E5
:102C000000DD1D00AC4218DA5B4659465E00A74B5A
:102C100061439C4649006144B4462E005D46A44F82
:102C20000F230F2D04DD5A0001338F529842FADC36
:102C300001346144A642F3D1AB462924D926059B31
:102C40009B22E41AF61AE343DB171C4052005B4652
:102C5000934501DB3623FF33079A964200DD1600C9
:102C6000B4421BDA5A465D46520090468F4A65438D
:102C700094465A4663356D0002276544632A09DD90
:102C8000633B5F005B46632B04DD3A00FF212800B5
:102C900006F032FC01344544A642F3D1002201275C
:102CA0009046109B99460893099B203BDAB25E2A16
:102CB00000D9B2E09E00F6187600774B2D249C4692
:102CC0006E2343449A462D3E66440525335D2B41D1
:102CD0001F4200D087E0013DF8D20134372CF4D1F7
:102CE000012294464B460532E14494461B78E04469
:102CF000002BDAD1002290466E4A012792465A46AE
:102D00001192089A099B9146203BDAB25E2A00D9BB
:102D100080E09E00F61876005F4B2D249C466D23C4
:102D200043449B462D3E66440525335D2B411F429F
:102D30004FD1013DF9D20134372CF5D1012294460F
:102D40004B460532E14494461B78E044002BDBD12E
:102D5000119B3A259B463B23059A5846AD1A9B1A70
:102D6000EA43D217154098225200934501DB3020E8
:102D7000FF30079E9E4200DD1E00B54216DA5B461C
:102D800059465F00494B69439C4649006144B4463B
:102D90005E46494C6723672E04DD5A0001338C528E
:102DA0009842FADC0135C919AC45F3D1069C0020E4
:102DB0002100FEF773FE230020330693E62B01D09B
:102DC000FFF758FB19B0F0BCBB46B246A946A04677
:102DD000F0BD5B46581B534601220093210001239E
:102DE000FEF7FEFEA5E75346581B324B0122009327
:102DF00021000123FEF7F4FE6DE75346581B5B46A6
:102E00000122009321000123FEF7EAFED0E69B2673
:102E10007600BFE69B2676007EE79B2676004CE791
:102E20001F4B079C1B687634E41A0593E34322008A
:102E3000DB171C401B4B0C321D6828005E2D00DD8B
:102E40005E20194B1E68964200DD1600B44215DA6A
:102E50002900164B61439C4649006F0061441023D2
:102E6000A446102D06DD154C5A0001338C529842B1
:102E7000F9DC64460134C919A642F0D1104B9B46D7
:102E8000B9E5104B104A0A93104BFFF7E9FAC04618
:102E9000ED080110CB5A000030090110F8080110AC
:102EA00008CF0020D80A0020D40A0020105D00209E
:102EB000FED6FFFFF8220000FDADFFFF58330000F3
:102EC000FFFF000030080110500801107C080110BD
:102ED000F0B54E464546DE465746E0B595B016007D
:102EE0000692C822AA4BAB4C1A60AB4BB63A1A609A
:102EF0000022AA4B0D001A60E122049005912000E7
:102F0000FF21520106F0F8FA002D48D0E868002EA3
:102F100055D1012800D12BE103200121FFF752F800
:102F2000059D68680790002868D00478AC23002CC1
:102F300065D00DF079F943001B185B001A00089367
:102F4000C4239B1A0993069B002B00D094E02B8985
:102F50009846934B984500D10DE1924B984500D18E
:102F600013E1914B984500D10BE1904B984500D16E
:102F700004E18F4B984500D080E0B8231B029846AF
:102F80007CE0013701350E2F61D1012294465B466A
:102F90000532E34494461B78E244002B49D1049B5C
:102FA00064209C46D900614449003E31FEF776FD1D
:102FB00015B0F0BCBB46B246A946A046F0BD7D4B5D
:102FC00022009C4691327C49FF3264441300913BBD
:102FD000FF3B198002339A42FBD19132FF32A24269
:102FE000F4D1012898D1754A734B03200121FEF7D3
:102FF000C7FF059D68680790002896D1AC23012182
:10300000059A0AAC1268200000912731FFF7B2F947
:10301000069B5A4293B299462378002BBFD008A949
:1030200009228C4662449346002201269246644A55
:103030000292203BDAB25E2A1BD89D00ED186D008B
:10304000029B04279C461D2353449846654405244F
:1030500001E0013C95D32B7823411E42F9D0434631
:10306000181B4B460122009339000123FEF7B8FDDF
:10307000EFE79B256D00E3E7504B9846079B089AC6
:1030800001339B46C5239B1A9A465B460126039350
:103090004B4B0293203CE3B25E2B66D8A5002D1962
:1030A0006D00029B04279C460523534499466544C2
:1030B000052401E0013C0ED32B7823411E42F9D0B8
:1030C0004B46181B43460122009339000123FEF7AB
:1030D00087FD013CF0D2013701350E2FE8D1039B6B
:1030E0001C780133039306239C46E244002CD1D183
:1030F000079B099A1B7892460126002B2ED0203B75
:10310000DAB25E2A2ED89D00ED186D00029B0427CE
:103110009C460523534499466544052401E0013C3F
:103120000ED32B7823411E42F9D04B46181B434641
:103130000122009339000123FEF752FD013CF0D239
:10314000013701350E2FE8D1012294465B46053246
:10315000E34494461B78E244002BD0D1A423089A80
:103160009B1A4CE79B256D00D0E79B256D0098E7E7
:10317000144A124B39E7002398467FE7124B9846D2
:103180007CE78023DB00984678E7104B984675E78C
:10319000D80A0020105D0020D40A002008CF0020AB
:1031A0007EEF0000348400001057000028FE00006D
:1031B00069F20000B01D000058330000FFFF00005E
:1031C00030090110DC3B000060B30000CB5A000066
:1031D000F0B54746CE4680B5170008222D4B8846ED
:1031E0001A602D4B18321A6000222C4B2C4E1A609C
:1031F0008022814685B0FF213000920006F07CF9E4
:10320000474509DC2E203E21FF30FEF747FC05B084
:10321000C0BCB946B046F0BD84239B0034009C4638
:10322000204D103466442300103B1D800233A3421E
:10323000FBD110331C00B342F5D14346D8004044C3
:103240003900000105F0B0FA0400102820DB9020BE
:103250004B46001B434318004346F91A05F0A4FAF5
:10326000114B0500029301930223010000930822F1
:1032700023000020FEF72AFD0C4A01200292019251
:103280000122A31E0092691C0532FEF71FFDB9E75B
:103290001024DCE7D80A0020D40A002008CF002040
:1032A000105D00209DF7FFFFDEA50000BFC60000F7
:1032B000F0B54546DE4657464E46E0B5C8252022C5
:1032C000574B85B01D60574B04001A600022564BC7
:1032D00003911A60C822FF215448920106F00CF9AC
:1032E000002C42D020000CF09FFF43001B185B0015
:1032F000ED1A23786D10002B37D0621C92464C4A91
:10330000AB4602924B4A9146203BDAB25E2A00D984
:1033100083E09D00ED186D00029B04279C46052369
:103320005B44012698466544052401E0013C0ED328
:103330002B7823411E42F9D04346181B4B460122ED
:10334000009339000123FEF74BFC013CF0D201371A
:1033500001350E2FE8D10122944653460532E2444E
:1033600094461B78E344002BCED1039B002B46D020
:10337000039C20000CF058FFC82243001B185B0080
:10338000D21A237821005210002B38D00120844615
:103390009346274A61440292264A8A469146203B38
:1033A000DAB25E2A36D89D00ED186D00029B142714
:1033B0009C4605235B44012698466544052401E0AC
:1033C000013C0ED32B7823411E42F9D04346181BF3
:1033D0004B460122009339000123FEF701FC013C1A
:1033E000F0D2013701351E2FE8D101229446534611
:1033F0000532E24494461B78E344002BCFD166218A
:103400006420FEF74BFB05B0F0BCBB46B246A946B4
:10341000A046F0BD9B256D00C8E79B256D007BE7AE
:10342000D80A0020D40A002008CF0020105D002018
:1034300030090110CB5A0000F0B5DE4657464E4623
:103440004546E0B58BB004925022994B03911A6027
:10345000984B303A1A600022974B1A60A022974B83
:1034600052019918964A1A8002339942FBD10028DA
:1034700000D182E00123020000931021493306A805
:10348000FEF778FF04AB1B7A002B76D004A98C469C
:1034900000218A468B490922029100216244934609
:1034A00089460592203BDAB25E2A00D9FCE09D00F5
:1034B000ED186D00029B00279C460A235344012609
:1034C000984665440524013701E0013C0ED32B7872
:1034D00023411E42F9D04346181B4B46012200935C
:1034E00039000123FEF77CFB013CF0D201350A2FA5
:1034F000E8D1012294465B460532E34494461B78AA
:10350000E244002BCED1059B9B4604AB1B7A002BDB
:1035100033D0002292469146203BDAB25E2A00D98F
:10352000BFE09D00ED186D00029B00279C4609231B
:1035300053440126984665440524013701E0013CC7
:103540000ED32B7823411E42F9D04346181B4B461D
:103550000122009339000123FEF742FB013CF0D227
:1035600001350A2FE8D1012294465B460532E34437
:1035700094461B78E244002BCED1039B002B3ED017
:10358000039A1378002B3AD001218C46624492466C
:10359000002293464B4A02924B4A9146203BDAB2B4
:1035A0005E2A00D977E09D00ED186D00029B0C2784
:1035B0009C4609235B44012698466544052401E0A6
:1035C000013C0ED32B7823411E42F9D04346181BF1
:1035D0004B460122009339000123FEF701FB013C19
:1035E000F0D201370135162FE8D101229446534617
:1035F0000532E24494461B78E344002BCED1049B71
:10360000002B3DD0049A1378002B39D001218C4631
:1036100062449246002293462A4A02922A4A9146DE
:10362000203BDAB25E2A39D89D00ED186D00029B6E
:1036300016279C4609235B440126984665440524C9
:1036400001E0013C0ED32B7823411E42F9D04346C2
:10365000181B4B460122009339000123FEF7C0FAE4
:10366000013CF0D201370135202FE8D101229446E8
:1036700053460532E24494461B78E344002BCFD1F5
:10368000AC210F20FEF70AFA0BB0F0BCBB46B246E5
:10369000A946A046F0BD9B256D0087E79B256D00E0
:1036A000C5E79B256D003FE79B256D0002E7C046FF
:1036B000D80A0020D40A002008CF0020105D002086
:1036C000FED6FFFF30090110CB5A0000F0B5DE46F0
:1036D00057464E464546A022E0B5494B85B00021ED
:1036E00000935200F0230020FEF764F9A222454B1C
:1036F0001A60454B8C3A1A600022444B1A60444AC7
:10370000444B991820221A8002339942FBD100239E
:10371000029301930433A2220021002000930E3370
:10372000FEF7D4FA3C4BA02202930193032301211C
:10373000009301200D33FEF7C9FA0022374B914662
:103740009B4600239A465033203BDAB25E2A51D87A
:103750009D00ED186D00324B04279C460B2353440B
:10376000012698466544052401E0013C0ED32B78E0
:1037700023411E42F9D04346181B4B4601220093B9
:1037800039000123FEF72CFA013CF0D20137013554
:103790000E2FE8D1012294465B460532E34494465D
:1037A0001B78E244002BCFD107250A2498461A4FF4
:1037B00026004346083600932A00012331002000EA
:1037C000FEF70EFA022D18DD023D013401232A0016
:1037D000310020000097FEF703FA0E2CE8D1CA2131
:1037E0000320FEF75BF905B0F0BCBB46B246A94624
:1037F000A046F0BD9B256D00ADE7023D0134ECE72E
:10380000E80C0110D80A0020D40A002008CF0020BC
:10381000D81B0000105D0020FCFF0000050901100E
:1038200030090110F0B54746CE4680B59D00ED1831
:103830006D0002351F00814688461600202383B0A4
:10384000202D02DC2B1E00DC0123FE21244ADD0199
:1038500011600021234AED1A1360234C234AAD0066
:10386000234B11602D1923800234A542FBD1404621
:103870000CF0DAFC03007B435800C018FE23400024
:10388000181A4010C343DB1718401A4B9E421AD037
:10389000194B9E421CD0194B9E421BD0184B9E4286
:1038A0001BD0184B9E4210D0330042460121009796
:1038B000FEF708FD49462120FEF7F0F803B0C0BC32
:1038C000B946B046F0BD0026EEE7B8263602EBE773
:1038D0000D4EE9E78026F600E6E70C4EE4E7C04629
:1038E000D80A0020D40A0020105D002008CF002054
:1038F0005BEFFFFF7EEF00003484000010570000F4
:1039000028FE000069F20000CB5A000060B30000FE
:10391000F0B557464E46DE464546E0B51600FE2257
:10392000434B0F001A60434BEC3A1A600022424BA3
:1039300042491A60424B8246C8180B00414A83B084
:103940001A8002339842FBD1BC23FE22FE20DB000A
:103950003D4DCC18520000012300D53BFF3B1D809C
:1039600002339C42FBD1FD34FE32FF348242F3D15C
:10397000364B374CCD18E8222000FD34FF21520091
:10398000FF3405F0B9FDA542F5D1002E44D0E42264
:1039900000233800002105F033FD3200002304F03D
:1039A00069FF8146062837DD0D2398460026300240
:1039B0000721801B04F0F8FE05004007401B800033
:1039C000401BFF21400004F0EFFE0F30C3029B4676
:1039D0002801FF21281A04F0E7FE5B463930440134
:1039E000E800FF21281A1C4304F0DEFE0C300443DB
:1039F000771DA4B201230722390040460094013606
:103A0000FEF7EEF8082ED2D1434642460233093281
:103A1000994501DD9046C9E7514621200239FEF75C
:103A20003DF803B0F0BCBB46B246A946A046F0BD87
:103A3000D80A0020D40A002008CF0020105D002002
:103A4000B82300005BEFFFFFF77C0000DA1D0000E9
:103A50001A63002010B500F0D3FD10BDF0B5DE46AE
:103A6000454657464E46E0B58FB00792A0220893D0
:103A7000B14B049000938946F023002100205200AE
:103A8000FDF798FFAD4B1E279B46AD4B2025984672
:103A9000A0225B4652001A60AA4BA0221D60C246BB
:103AA0004346D20142441D8002339A42FBD1312663
:103AB000A54BF61B1F60F3439122AF21A024DB1717
:103AC0001E40B300039392009B1998014244DB010E
:103AD000D2188900A4019D4BD318198002339A4251
:103AE000FBD1A0239B009C464130FF306244A042A2
:103AF000F1D1002382221E2100931E20944B5200FC
:103B0000FEF700FB039B9C19924BA1014344E40187
:103B1000E418DB23DB1B202B00DD20239800C018DA
:103B20008D4A80012300FD3BFF3B1A800233A342F4
:103B3000FBD1A0244131A400FF311C198142F1D1F5
:103B4000390000202037FDF7A9FFDE2FA0D104980F
:103B50000CF06AFB43001B189B0005937F4B9945B3
:103B600000D1D7E07E4B994500D1DEE07D4B9945F1
:103B700000D1D6E07C4B994500D1D9E07B4B9945EB
:103B800000D1CAE0FE235A4613606E4AE23B13603E
:103B9000002351466C4A1360754B6F4A43440A80B8
:103BA00002318B42FBD1FE20059BC01A43100393C8
:103BB000049B1B78002B77D00399049A08000132EC
:103BC00001318B460127924606920990203BDAB2DA
:103BD0005E2A00D998E09E00F6187600654B9C4658
:103BE0000023984666445D46052402E00235013C08
:103BF0000ED3337823411F42F8D04B462800009360
:103C0000022202234146FDF7EBFF0235013CF0D2D0
:103C100002239C46E04443460136142BE3D10122A3
:103C2000944653460B32E24494461B78E344002BFF
:103C3000CCD1099B9A46049B1B78002B34D0069A62
:103C400001279346203BDAB25E2A60D89E00F61820
:103C50007600484B9C46002398466644554605240A
:103C600002E00235013C0ED3337823411F42F8D0E5
:103C70004B4628000093022202234146FDF7B0FF85
:103C80000235013CF0D202239C46E0444346013613
:103C9000142BE3D1012294465B460B32E344944655
:103CA0001B78E244002BCDD14B46059A039817218F
:103CB0000C32063800930223FDF792FF38212120B1
:103CC000FDF7ECFE089B07990B93189B56240C9369
:103CD000199B0AAD0D93002904D0012320001F4A2F
:103CE000FFF7A0FD10340435962C06D02968002972
:103CF000F3D110340435962CF8D10FB0F0BCBB468C
:103D0000B246A946A046F0BD9B26760066E79B26F4
:103D100076009EE70023994634E7B8231B029946B4
:103D200030E78023DB0099462CE7134B994629E7BF
:103D3000124B994626E7C046E80C0110D80A00202D
:103D4000105D0020D40A002008CF0020F8FDFFFFFE
:103D5000200901103E0200005BEFFFFF7EEF000034
:103D6000348400001057000028FE000069F20000B3
:103D70009037000030090110CB5A000060B30000FA
:103D8000F0B54546DE4657464E46E0B593B01500C1
:103D90000C000590202900DCB5E020242023A02180
:103DA0005B4A4900116000215A4A5B4813605B4A34
:103DB00011609A00D218D20105F09EFB01230093F6
:103DC00018332A003021FF3306A8FEF7D3FA220069
:103DD0000A3AD30F103C9B18E10F5B1009190393AB
:103DE000082000234E4A4910FEF7CAF804AB1B7A9C
:103DF000002B63D004A909228C46624493460492A6
:103E00000022029201329046464A039E92460A36AA
:103E1000203BDAB25E2A00D972E09F00FF187F00D3
:103E2000039B2422FF1A1D003F4B9C466744944687
:103E3000029B6344994605247B5D424623411A4216
:103E400047D1013CF8D20135AE42F4D101225B46A4
:103E50009446029A1B780632E3440292002BD7D193
:103E600004AB1B7A002B29D00022934601329046E6
:103E70002C4A9246203BDAB25E2A3ED89F00FF18B9
:103E80007F00039BFF1A1D00274B9C4623235B44A6
:103E90009946674405247B5D424623411A4222D15C
:103EA000013CF8D20135AE42F4D1049A13780132C4
:103EB000049206229446E344002BDBD100200599AE
:103EC000FDF7ECFD13B0F0BCBB46B246A946A046D8
:103ED000F0BD4B46181B53460122009329000123D5
:103EE000FDF77EFEADE74B46181B534601220093BB
:103EF00029000123FDF774FED2E79B277F00C0E76E
:103F00009B277F008CE70B1E00DD48E7012346E777
:103F1000D80A0020D40A0020105D002008CF00201D
:103F2000CBFB00007EEF000030090110F0B55746D2
:103F3000DE464E464546E0B595B007931EAB0C00F5
:103F40001F780A900992202900DC06E1202420260F
:103F5000A022A64B52001A600022A54BA54D1E6060
:103F6000A54B00211A60B20092192800D20105F079
:103F7000C3FAE30F1C19631008930A24002F00D022
:103F8000F2E014261F009D4DE10F0919491023008E
:103F9000301B0222791A0095023CFDF721FE002C0D
:103FA000F2D1089B053B04931021099A0CA8FEF757
:103FB0000DFA1021079A10A8FEF708FA08AB1B7C2F
:103FC000002B3ED008A911228C46624406920022A2
:103FD00090468B4A01260592884A9146203BDAB2E8
:103FE0005E2A00D9B6E09D00ED186D00059B9C4649
:103FF0000A239B46049B65445B1B9A46AB4453468D
:1040000005245F1901E0013C0FD32B7823411E42A8
:10401000F9D040464B462330001B00930122012378
:104020003900FDF7DDFD013CEFD20135AB45E6D1AE
:10403000069A13780132069206229446E044002B39
:10404000CCD110A80CF0F0F843001B185B001A004C
:104050000B939C2320215B009B1A08AA5218157809
:10406000002D3DD09846664B08A921228C46059329
:10407000644B012699462B0062440692203BDAB23B
:104080005E2A64D89D00ED186D00059B9C460A23AE
:104090009B46049B65445B1B9A46AB4453460524F0
:1040A0005F1901E0013C0FD32B7823411E42F9D068
:1040B0004346581D4B46001B009301220123390043
:1040C000FDF78EFD013CEFD20135AB45E6D1069AF6
:1040D00013780132069206229446E044002BCDD19B
:1040E00097250CA80CF0A0F80B9B6D00ED1A464B21
:1040F00044000293019303232418089E640028348B
:104100002D1B033E00932A00033331002000FDF7EE
:10411000DDFD079B002B0FD00998079B984221D803
:104120002A00EB17002105F06BF9079A002304F031
:10413000A1FB020005284CDC00200A99FDF7AEFC2B
:1041400015B0F0BCBB46B246A946A046F0BD9B25C3
:104150006D009AE79B256D0048E70E1E00DDF7E62F
:104160000126F5E61800DBE7089B591F5A1DCB43D3
:10417000DB1704910B40964229DCB34200DB13E7C6
:104180009A00D3189B011A002C00B1000A328E1934
:104190005200F60114341D48AA18A419A021890060
:1041A0008C4610805080908062449442F6D1103347
:1041B0005B00EB18154A2035AD19A02189008C460B
:1041C0001A805A809A8063449D42F6D1ECE616002C
:1041D000D3E70F4B310002930E4B200001930323D2
:1041E00000930333FDF772FDA6E7C046D80A00200E
:1041F000D40A0020105D002008CF00207EEF0000D0
:104200003009011034840000892900007EEFFFFF8F
:1042100011F20000CBFB0000F0B5DE4645465746E4
:104220004E46E0B589B00D0005900BF0FDFF24234C
:104230009C4644002418A400A444634660460693A8
:10424000A0235B00984200DD18002022564B574EF9
:104250001860574B80011A600022564B1A60564B6B
:10426000C0181E8002339842FBD109230021002090
:10427000069A009302951B330195FDF727FD07234E
:104280002200009302211933022020320296019667
:10429000FDF71CFD059B1B78002B70D01421059A9F
:1042A00089464649013293468A460792203BDAB254
:1042B0005E2A00D972E09E00F6187600404B0A276D
:1042C0009C4601236644984606E00235013C05D22F
:1042D000023701361E2F0FD04D4605243378424653
:1042E00023411A42F1D0534602220093390002239F
:1042F0002800FDF775FCE8E7012294465B460B3287
:10430000E34494461B78E144002BCFD1079B9B46A6
:10431000059B1B78002B32D006329146294A9246E3
:10432000203BDAB25E2A3CD89E00F6187600244B79
:1043300008279C4601236644984606E00235013C66
:1043400005D2023701361C2F0FD04D460524337895
:10435000424623411A42F1D05346022200933900CB
:1043600002232800FDF73CFCE8E7012294465B4667
:104370000B32E34494461B78E144002BD0D1A020BB
:10438000069B4000C01A66214010FDF787FB09B06C
:10439000F0BCBB46B246A946A046F0BD9B267600BF
:1043A0008CE79B267600C2E7D80A0020630800004D
:1043B000D40A002008CF0020105D0020EA18000079
:1043C000300901107EEF0000F0B5CE46474680B5BB
:1043D00005000C0085B00C2900DC87E00C24A2004D
:1043E0009046A04446461422434B1F361E60434B62
:1043F000B1001A600022424B89191A60414BC90072
:104400009946414F49441F8002338B42FBD13F4BB9
:1044100032000293019306230021002000930E3303
:10442000FDF754FC05234246012101201D3202976D
:10443000019700934F460D33FDF748FC73009C46EF
:104440000620F200921B520008373149D21913009E
:10445000083BD98102339342FBD1634401381A00EF
:104460000028F4D1122399462A4B0B2798464A4636
:10447000D11B42467B0038000092103B01220137DD
:10448000FDF7AEFB0F2FF2D12300022C00DA02233E
:10449000013B98460F230027994607E01E4A013743
:1044A00000920322FDF79CFBBC4214D0F800414669
:1044B000C01B04F079F94A46C31CB800C0191A3071
:1044C000D11ABD42EADD114A013700920322FDF7FD
:1044D00087FBBC42EAD19D2040000621801BFDF7EE
:1044E000DDFA05B0C0BCB946B046F0BD002900DD1C
:1044F00075E7012473E7C046D80A0020D40A0020DB
:1045000008CF0020105D002063080000CBFB0000F6
:104510007EEFFFFF7EEF00000B3A0000F0B51321A5
:1045200083B004F069F9B4220F00154D0021280072
:10453000D20004F0E1FF781E44002418A40064199E
:10454000043F0E280CD901380C3CB842F9D108239D
:104550005A22CD2171200095FDF72CFA03B0F0BD51
:10456000084923000E0010360A8802311A805A804A
:104570009A80DA801A81B4338E42F5D1E3E7C046DF
:1045800064E10020E8640310F0B54E464546DE467F
:10459000574683B29A468BB29B46184B91460C0005
:1045A000E0B598460026E12585B003914C444B4682
:1045B000404699190B780131DA089B085B01D70254
:1045C0003B431343038002308C42F3D1434629001E
:1045D00000935A4601235046FDF7ECF9039B013541
:1045E0009C46ADB266446444EA2DE0D105B0F0BC0F
:1045F000BB46B246A946A046F0BDC04684AD0020E9
:10460000F0B54E46DE4657464546E0B5002085B03B
:10461000FDF7C4F90023B92500249946374B384EDD
:104620000133384F0293AC46082D01DD08239C4628
:104630006246BB23002153438A460022C846002C11
:1046400039D050465100013C885301329342F6DC88
:10465000C146D7216346491BBB224A209BB289B27F
:104660000096083DFDF7A6F9EB1DDCD1962106204A
:10467000254AFFF789FF04203721244AFF30FFF73E
:1046800083FF0022224B00201A60FFF747FF02F051
:10469000FFF900292CD0FA220023920004F0EAF856
:1046A0001C4B18601C4B186005B0F0BCBB46B246F2
:1046B000A946A046F0BDC3465100891903940120C4
:1046C0008046D946C3445C460C48005D002809D0AA
:1046D0004000C05B0132088002319A42EFDBD946CC
:1046E000039CB6E748460299023080460C5DADE770
:1046F000FA21890004F080F8D2E7C046F76403107D
:10470000A04D0020888A0310788E0310888C031037
:10471000BCAE002050E1002044E1002010B502F0C2
:10472000B7F9002911D0FA220023920004F0A2F870
:10473000084A1368C31A6D2B06D9074B10601A6814
:10474000501C1860FFF7EAFE10BDFA21890004F042
:1047500053F8EDE750E10020BCAE002070B5050035
:104760001A4E1B4C1FE0FA220023920004F082F83C
:104770003368C01AA84222D202F08AF900291FD059
:10478000FA220023920004F075F82368C31A6D2BF7
:1047900006D9104B20601A68501C1860FFF7BEFE47
:1047A000052002F0B5F802F073F90029DBD1FA21F7
:1047B000890004F021F83368C01AA842DCD370BD28
:1047C000FA21890004F018F8DFE7C04644E1002030
:1047D00050E10020BCAE0020F0B54E46DE46574604
:1047E00045460023E0B583B0019381460C0002F0FA
:1047F0004FF9284B80469A461B68274E4B452CD1D3
:10480000E10009194900254F0C192403E7193469FF
:10481000002C33D080239B019B46214D08E0019B57
:10482000B34212D1A41BBF1901F08EF9002C25D080
:1048300026005C4501D98026B601320039002800E7
:1048400001AB08F063FE0028E9D0002003B0F0BC03
:10485000BB46B246A946A046F0BD4A460023002109
:10486000306904F0CDFD0023B2690D4D12184B41A3
:10487000280009F001F90028C2D0E6E74D4653466A
:1048800001351D6002F004F94346C01A054B18605B
:104890000120DBE704CF0020C8AE002008E700209D
:1048A000C849002020CF0020F0B54E464546DE46E0
:1048B0005746E0B58026694C694DA544B600040012
:1048C0003200280007AB08A908F020FE00280AD112
:1048D000079BB34207D1089A624B01929A420FD0CC
:1048E000614B9A4211D0280009F09AF802208923DE
:1048F0009B009D44F0BCBB46B246A946A046F0BD15
:1049000004225A4908A80BF017FD06AB9B8906AA9A
:104910002380994606ABDB896380127C2272944621
:1049200006AA527C924606AA568A918A0C9AA680BA
:104930000192E2600D9AE1802261002E01D10F36D2
:10494000A680002901D10131E18080210026890063
:10495000A16166622662E66100282DD11198884225
:10496000C1D30490C005BED10E980F9F8046049815
:10497000109EA0613E48404483463E4883451BD874
:10498000002E19D08F4217D3F90515D10021300020
:10499000039100210297B3460597029E039F801959
:1049A0007941002908D1049EB04205D841465E46AF
:1049B000059FE161276266625146002945D149465B
:1049C000002942D0002B40D06146013907293CD84C
:1049D00061464E46A02071434000814235D8614671
:1049E0005943F02931D89621734309028B422CD8C0
:1049F0005B009A4229D398235B029A4225D89307F9
:104A000023D1286969690F0000210600A069B94215
:104A100020D0361A8F4100233000390003F02AFFDE
:104A2000019B834201D9E0600190019A002A00D1E4
:104A300059E700230021E08804F0E2FC0023A2886B
:104A400003F018FF6061002051E7280008F0E8FF3C
:104A500003204CE7B042DCD945E7C046DCFDFFFF50
:104A6000C84900205056443150564432C893031070
:104A700060F0FFFF606D000070B50A4E0D0001226E
:104A80000100300008F0D0FA0124002801D02000F5
:104A900070BD2800FFF708FF041EF8D1300008F0B1
:104AA000BFFFF4E7C8490020F0B54546DE4657464B
:104AB0004E46E0B504000D00A1B001000122B3484C
:104AC00008F0B2FA002834D0B14A00230193B14B68
:104AD000B149B2480093B24BFEF7C0FF0123CD208D
:104AE000B04AB149FEF79EFED0249620240640002D
:104AF00001F00EFF636801255B0715D421B0F0BCFF
:104B0000BB46B246A946A046F0BD63681B091D42DC
:104B1000F4D063681B0F1D42F0D00A2001F0F8FEAC
:104B200063689B081D42E9D06368DB081D42ECD135
:104B3000E4E79E4B18009946FFF7B6FE1290002856
:104B400001D000F068FC4B461B88F0229B464B4688
:104B50001E7A5B887343D11AC80F401840108446F0
:104B60006344D31A13900022272904DD0200202871
:104B700001DD00F070FC8E490A60132B01DC00F0AF
:104B800037FC202B01DD00F063FCF022D21A8949AA
:104B90000B60894B1A60894B894A1D600023137092
:104BA000884A13704B46D969002901D000F042FCB5
:104BB0000020FCF7F3FE7E4B1968002901D000F0BD
:104BC00033FC0123804A5B42136000227F490A6064
:104BD0007F4A1360D0231B065A687E4B98467E4B53
:104BE00093434246136001F053FF7C4B0022186050
:104BF00059609A4600237A4900200A604B6079493F
:104C00000A604B600021FFF7E7FD1B90002800D1F0
:104C1000B4E000F01BFD002801D000F01FFC5B4653
:104C2000A0275E437F00BE1BF70FBE1973101A93B7
:104C300001F02EFF6C4B00279B4618605960002343
:104C40006A4A10931360129C4B46A446E0006044ED
:104C5000674C4A46494640006044A446139C1B7A70
:104C60005288098801941A9C000360440094FCF760
:104C700001FE109B591C4B46DA68002391425B41B0
:104C8000DBB2099108938A4200D87DE2002F00D15F
:104C900039E30121129B09985940FFF79DFD002837
:104CA00000D071E24B46109AD8880021002304F00E
:104CB000A7FB4B469A88002303F0DCFD444B1860A9
:104CC0003C4B1968002900D0F9E24A494A48FFF7ED
:104CD000A3FA1B9B089301F0DBFE0B00D021090611
:104CE00002004868C1438C463B49814340460E0060
:104CF000006886434046016026D1B10634D461463F
:104D0000C90500D492E136494968994200D2B8E217
:104D100000D1B0E26146890500D4BDE1314949685E
:104D2000994200D2DEE200D1D6E200F00DFF089BEE
:104D3000002B00D0F6E0002F00D1A6E09620002145
:104D4000400001F0D3FDC6E75446100065682468B2
:104D50001900001BA9410400002907D127498C42F2
:104D600004D80026B106CAD52548A6E15146300030
:104D70000A604B60234908400E4245D000F022FFF4
:104D8000FCF76EFD014808F04BFEB7E6C84900206D
:104D9000F09303104494031069F20000349403105C
:104DA000249403103484000098060110C8AE00203B
:104DB00004E70020545A0020585A00200C5D0020BF
:104DC000156003201460032004CF002020CF0020B2
:104DD000F0C700201CCF00207C030010B049002049
:104DE000B8490020C0490020A849002080AD00201B
:104DF00008E7002010570000649403105FEA0000E9
:104E0000801A0600080000101421314200D1E1E1AF
:104E1000089B002B00D0DEE001235F40CC4B1C68D8
:104E2000002C00D06EE1002F00D085E1C94B1B782B
:104E3000002B06D0C74B1F70C74B1968002900D044
:104E40000BE200F003FC002815D04B464946DA88F7
:104E5000C8690023002104F0D3FA099A002304F062
:104E6000CFFA4B469A88002303F004FD00F0F4FBD0
:104E70000123BA4A137001F00BFE5B46B84A186072
:104E80005960099B136000F05FFE01F001FEB44A17
:104E9000099B12681190981A4B460C00DA88002181
:104EA000002304F0ADFA0B000200C10E58010843C4
:104EB00051010390029102980399801A9941C70DFC
:104EC0004D023D43410205950491049805998018CF
:104ED0005941870E8D013D43079585010695069D35
:104EE000079E2D1A8E4128003100801859414B46EB
:104EF0009A88002303F0BEFC5B461A685B68801842
:104F00005941A14201D9002718E7A14202D1119BC2
:104F10009842F8D80123129A00275A40099B12920E
:104F2000109390E68D4B1B78002B03D1052001F0E8
:104F3000EFFCD0E601F0ACFD4B46894ADB68126815
:104F40001190981A4B460C00DA880021002304F0D7
:104F500057FA0B000200C10E5801084351010B9093
:104F60000A910A980B99801A9941C50DAC4666467C
:104F70004D02354341020D950C910C980D99801806
:104F80005941850EAC4666468D0135430F95850126
:104F90000E950E9D0F9E2D1A8E412800310080180F
:104FA00059414B469A88002303F064FC5B461A681B
:104FB0005B6880185941A142B8D802D1119B984230
:104FC000B4D8664B1B78002BB0D000F003FC002354
:104FD000624A1370AAE704000027604B1B78002B7D
:104FE00054D15C4B1B78002B07D00023594A137017
:104FF000594B1968002900D0F2E10126FCF730FC7A
:10500000129B2000734019001293FFF7E5FB002864
:1050100000D1B3E6002F00D1C7E101F039FD5B46B6
:10502000186059604E4B10941C600CE661464906AE
:1050300000D46FE64B494968994207D300D069E62E
:10504000484909681191914200D363E6002146481E
:1050500012184B4143490A604B604B469B889800AD
:10506000C0184B46D98803F0C7FB089B0400002BEF
:1050700000D1C9E0109B9C464B46DB6864449C42CF
:10508000ABD35C1E354B1B78002BAAD000F0A2FBE3
:105090000023324A1370A4E76146890600D444E62F
:1050A00032494968994207D300D03EE62F49096842
:1050B0001191914200D338E62D48002112184B413E
:1050C0002A490A604B6000F0C1FA002800D12CE6A2
:1050D00000F094FA030001204042C01800F094FA56
:1050E00000F08CFA0821FFF76FF90123194A1370B9
:1050F00001F0CEFC00231F4A801859411E4B186056
:10510000596012E64B46109AD8885E690021002348
:1051100004F076F94B469A88002303F0ABFB174B5B
:1051200002001B6821001193119833000097FEF7CD
:10513000FDFE002F00D179E6084B1B78002B00D034
:1051400093E00F490F48FFF767F800F0FDFCF5E525
:10515000545A00201560032004E700201460032047
:1051600080AD0020B849002020BF0200C0490020C7
:10517000F049020060E3160060420020585A002007
:10518000CBFB0000689403104B46109AD88800218E
:10519000002304F035F94B469A88002303F06AFB9C
:1051A000C04B1B681193834231D0089B3B43DBB259
:1051B000BC4A1060BC4A1168002900D081E0089BFD
:1051C000002B00D081E5002F26D0B849B848FFF762
:1051D00023F880E5F10500D556E1710600D45BE1C6
:1051E0000021B44812184B41B3490A604B604B464A
:1051F0009B889800C0184B46D98803F0FDFA089B9D
:105200000400002B00D035E7099B109332E7089B80
:105210003B43DBB2002BCBD1A84B1F780023089374
:10522000002F00D157E501F033FCA54B5B688B42A2
:1052300000D9E7E000D1DFE0A04B1F780023002F6A
:1052400000D116E19D4A13709E4B1968002900D0C9
:1052500012E10023002708933DE59B4B00201B68CB
:105260001A001193FEF78CFDEBE500F0B3FA002372
:10527000964A137065E7904909681191914200D3ED
:1052800048E50021924812184B418B490A604B6057
:105290004B469B889800C0184B46D98803F0ACFA5F
:1052A000089B002B04D0109B834206D91C1A94E65D
:1052B000099B1093109B8342F8D800248DE61B9B1A
:1052C0000893844A126800934B4611925B6902006E
:1052D0001198FEF72BFE72E77F4909681191914200
:1052E00000D322E57D48002112184B417A490A601B
:1052F0004B6000F0ABF9002800D116E500F07EF914
:1053000003000120E9E600265C4601F0C1FB656868
:105310002468734B1D961B681C931C9A1D9B121BC3
:10532000AB41801859414B469A88002304F068F835
:105330004B461191DB881F961E931E9D1F9EEB0E00
:1053400019936B011893189A199B521BB341D40DF2
:1053500059022143530215911493149A159B521923
:105360007341940E9901214317919101169184463E
:1053700016981799801A994102000B00604652193D
:105380007341119903F076FA564B1B689C46099BB2
:105390006044834200D37CE44B46DB68099083423F
:1053A00000D976E4013B099373E400F04FF900283B
:1053B00000D132E64B464946DA88C869002300210D
:1053C00004F01EF82200002304F01AF84B469A88D5
:1053D000002303F04FFA00F03FF93C4B1E701CE62F
:1053E000394B00201B681A000893FEF7C9FC04E63D
:1053F0000023F022FFF7CBFB314B1B68089383425D
:1054000000D819E700F0FAF80821FEF7DDFF0023C5
:10541000002708935FE4012801D1FFF755FB03281B
:1054200024D0314AFFF751FB2A000020FEF7A8FCE8
:10543000FFF7C7FB4A4620005B6A126A00F05CFA7D
:10544000002801D0FFF7B4FB4B46D861FFF7B0FB53
:105450002023FFF79AFB2022FFF78DFB002000F0AE
:10546000FBF80123194A1370FFF7D9FB1F4AFFF716
:105470002CFB0893FFF72FFC134B00201B681A002E
:105480000893FEF77DFCE4E600210A4812184B4120
:1054900009490A604B60FBE6B10501D4FFF72DFC1A
:1054A000134820E7F0C70020545A0020CBFB00002F
:1054B00068940310D0DD0600B84900201560032071
:1054C0006042002004E700200C5D002014600320EF
:1054D00020BF0200585A0020C0490020F0490200B5
:1054E00020CF002080AD00200C940310D093031037
:1054F000801A0600F0B5CE464746802380B5304C72
:105500009B00A5440400984200D91C002D4D2E4E4E
:1055100029683368994215D380232C4A2C4E5B00AE
:10552000D55A33682B491C191A05D20C01338D52F8
:105530009C42F9D1346083239B009D44C0BCB94692
:10554000B046F0BD244A5B1A12688A18D205D00D05
:1055500080229200121A9A422DD8A24229D8002302
:1055600002AF019339001D4801AB07F0CFFF0028BF
:105570001CD1019B9C46002B18D0154E134A336852
:105580009046FA1A914634681249644448464746A0
:10559000C05C1A054000385AD20C013388529C4234
:1055A000F4D12B68346063442B60C4E72B6833600C
:1055B000B2E72200D3E71A00A242D0D9F9E7C046E9
:1055C000F4FDFFFFB4AE00208C4D0020FCCC002089
:1055D0000860032000200020844D002000400020AF
:1055E00010B5072000F048FB0521072000F006FB5E
:1055F000D02380221B065A629A6110BD014B1868A5
:105600007047C046E40A0020F8B5082813DD0820DA
:105610000B4B7F2518600B4B0B4C1F5C80239B00B2
:10562000E6182800FF2103F0E7F820800234ED1986
:10563000B442F6D1F8BDC343DB171840E8E7C046D3
:10564000E40A002070940310FCCC0020014B187871
:105650007047C04612600320F0B5C646484B00B5FF
:105660001B78002B00D186E0464C2378002B13D00A
:10567000454BA025196801238B40444AED05AB50EA
:10568000434B80229C468901614452040B681D00F3
:1056900015401342FAD125703E4B1D68854200D952
:1056A0006CE03D4B00271E682A0000233B489219FE
:1056B0007B4108F0E1F900285DD1394B1D60394B81
:1056C0001D60394B802598461F606D01281AFFF731
:1056D00011FF43461868A842F8D3344B80209846FF
:1056E0001900002280000B88534301325B0A0B80B3
:1056F00002318242F7D10421072000F07FFA2C4BBF
:1057000018682C4B1A6893009B182B4A9B009E1814
:1057100042424241294952428C46D2033168D20B5F
:1057200062440A40802149010E433260012635005F
:10573000234A40009A1817681143134ABD43126860
:105740000D60204DD7022F40A025ED05AC461B185B
:10575000194892016244844645461B4963440968DE
:1057600015603B31C9033943184F5360184B394317
:1057700093602670D16080BCB846F0BD050090E70C
:105780001260032013600320DC0A002044040000A0
:105790000C0000508C4D0020844D00200040002063
:1057A000B4AE0020505900200860032000200020E3
:1057B000E05C00203CE100200C0005400000FFFF01
:1057C00000000540FD7F00FFE00A002055030000B7
:1057D000FFFFFF0FF0B54F46D64646463B4BC0B5E0
:1057E00099461B78002B5CD039483A4F84463B6879
:1057F0009900CA1892006244D668374A90461268E7
:10580000002A57D1354836040068360C82460120FC
:105810005446A040A024E405A4466546304C2851D7
:10582000504685012F48802484466544AA46640476
:1058300050460068050025402042F9D14846112411
:105840000570350115E0284A1968013C41400A40BD
:105850008021FA2049010B4389461A60002180000B
:1058600001F044F8AD1B002C0ED042463B68126894
:105870009900CB181D499B008C4628096344002AD7
:10588000E1D01B4A0004DFE73A6893009B18104AF6
:105890009B0094460122634419680A404946194313
:1058A0000A60144B1B78002B06D1E0BCBA46B14607
:1058B000A846F0BD360CA5E70521072000F09EF9AB
:1058C000D02380221B065A629A61EEE71360032000
:1058D000000005403CE10020E05C0020DC0A0020E4
:1058E000440400000C000050FFFF00000C000540C5
:1058F0000000FFFF19600320F0B557464E464546AD
:10590000DE46E0B57F4F1C003B7805008A46160056
:105910008DB0002B00D0A6E07B4B1B78002B00D075
:105920009AE05346002B01D0002C07D100200DB087
:10593000F0BCBB46B246A946A046F0BD01222900F4
:10594000724807F071FB0028F0D13B78002B00D1A2
:10595000B5E06F4B0B9352466E4B05201A606E4BB1
:105960001E606E4B1C6001F0EFFB53465C088346E3
:105970005146001902F040FF002307934033994637
:105980003F3B0A93023B05930893023398460990E4
:10599000069422E02900059A089B200003F030FDC0
:1059A000009A019B0D0006000021099803F028FDD4
:1059B0008D4202D808D1864206D90994009B019CE9
:1059C0000593434608940A9301239C46023BE04416
:1059D0009C46E1444B46002B48D05A4600234046A3
:1059E000002103F00DFD069B079C5246C018614143
:1059F000002302F03FFF04000D1EE5D18022520279
:105A00009042E1D28045DFD85A460023404600212B
:105A100003F0F6FC220006000F0000235046002190
:105A200003F0EEFC361A8F41FB1702930393029AA0
:105A3000039B110071400091190079400191009879
:105A40000199801A9941059B009001910133A1D1E0
:105A5000089B01339ED1B0E72C4807F0E1FF0023FB
:105A6000294A13705DE7FFF7B5FE55E70B9B0998D0
:105A70001A6880235B02984200D329480A9B7F253D
:105A80001B0418431300A0220933FF339B00D205E7
:105A90009850244B244A1B68244CD75C80239B00DD
:105AA000E6182800FF2102F0A7FE20800234ED193D
:105AB000B442F6D10123144A0120137037E70321C1
:105AC00001251B4A012011601A4AFC3115601A4A4F
:105AD000D36353649364D1647F391164D363174BE8
